:100000000C9462000C948A000C948A000C948A0070
:100010000C948A000C948A000C948A000C948A0038
:100020000C948A000C948A000C948A000C948A0028
:100030000C948A000C948A000C948A000C948A0018
:100040000C94BB010C948A000C94A3030C94EA0357
:100050000C948A000C948A000C948A000C948A00F8
:100060000C948A000C948A000000000024002700F1
:100070002A0000000000250028002B0000000000DE
:1000800023002600290004040404040404040202DA
:100090000202020203030303030301020408102007
:1000A0004080010204081020010204081020000012
:1000B0000007000201000003040600000000000029
:1000C0000000450611241FBECFEFD8E0DEBFCDBF34
:1000D00011E0A0E0B1E0E4E9F2E302C005900D9286
:1000E000AA3AB107D9F712E0AAEAB1E001C01D921D
:1000F000A136B107E1F710E0C4ECD0E004C02297CC
:10010000FE010E94F218C23CD107C9F70E94AC015F
:100110000C9448190C940000089584E690E00E9425
:10012000900208958F929F92AF92BF92CF92DF92EA
:10013000EF92FF920F931F93DF93CF93CDB7DEB76C
:10014000A0970FB6F894DEBF0FBECDBFFE0131966B
:1001500080E2DF011D928A95E9F78091AA019091D2
:10016000AB0162E070E00E94A718CC24DD245C01A2
:1001700014E0AA0CBB1C1A95E1F7A81AB90AB0E161
:100180008B2E912C8C0E9D1EC60163E070E00E94A8
:10019000A7188B01C60163E070E00E94A7189C01BC
:1001A000C6016DEF7FEF0E94A7186C5F7F4FFB01C8
:1001B000EE0FFF1FE60FF71FEA0DFB1DE20FF31F07
:1001C000EE0FFF1FE050FF4FE080F180F801EE0FCF
:1001D000FF1FE00FF11FE20FF31FEE0FFF1FDF0104
:1001E000A45CBE4F2D913C912C0F3D1FC70162E0D6
:1001F00070E00E94A718D9018C93E65AFE4F019037
:10020000F081E02DE80DF91DC70162E070E00E9469
:10021000A71860830894C11CD11CBFE0CB16D10481
:1002200009F0B2CF8E010F5F1F4F81E1C82ED12C94
:10023000CC0EDD1E8CE060E00E94FB0283E060E0FB
:100240000E94FB020E948D00F8018081882319F032
:1002500082E061E002C082E060E00E94FB02D8011F
:1002600050968C91882319F08DE061E002C08DE0FA
:1002700060E00E94FB028CE061E00E94FB0283E0F0
:1002800061E00E94FB020E948D000F5F1F4F0C1562
:100290001D0581F68BE061E00E94FB0284E061E0D5
:1002A0000E94FB020E948D008BE060E00E94FB0236
:1002B00084E060E00E94FB02A0960FB6F894DEBFD7
:1002C0000FBECDBFCF91DF911F910F91FF90EF90A7
:1002D000DF90CF90BF90AF909F908F9008958DE06A
:1002E00061E00E94D5028CE061E00E94D5028BE0C3
:1002F00061E00E94D50282E061E00E94D50283E0C5
:1003000061E00E94D50284E061E00E94D5028DE3A5
:1003100092E040E855E260E070E00E94B1048BE0BA
:1003200060E00E94FB0284E060E00E94FB020E9409
:10033000920008950E94920068EC70E080E090E0E6
:100340000E9437028091AA019091AB01019690938F
:10035000AB018093AA010895CF93DF930E949A0284
:100360000E946F01C7EDD3E00E949A012097E1F34C
:100370000E94D703F9CF1F920F920FB60F9211244C
:100380002F933F938F939F93AF93BF938091B0012F
:100390009091B101A091B201B091B3013091B4013B
:1003A0000196A11DB11D232F2D5F2D3720F02D5754
:1003B0000196A11DB11D2093B4018093B0019093CB
:1003C000B101A093B201B093B3018091AC019091BF
:1003D000AD01A091AE01B091AF010196A11DB11D7B
:1003E0008093AC019093AD01A093AE01B093AF01A7
:1003F000BF91AF919F918F913F912F910F900FBE21
:100400000F901F9018958FB7F8942091B0013091FC
:10041000B1014091B2015091B3018FBFB901CA013E
:1004200008959FB7F8942091AC013091AD014091AF
:10043000AE015091AF0186B5A89B06C08F3F21F059
:100440002F5F3F4F4F4F5F4F9FBF542F432F322F90
:100450002227280F311D411D511D82E0220F331F1D
:10046000441F551F8A95D1F7B901CA0108959B0110
:10047000AC017FB7F8948091AC019091AD01A0914F
:10048000AE01B091AF0166B5A89B05C06F3F19F0F2
:100490000196A11DB11D7FBFBA2FA92F982F8827C4
:1004A000860F911DA11DB11D62E0880F991FAA1F23
:1004B000BB1F6A95D1F7BC012DC0FFB7F89480919E
:1004C000AC019091AD01A091AE01B091AF01E6B544
:1004D000A89B05C0EF3F19F00196A11DB11DFFBFFC
:1004E000BA2FA92F982F88278E0F911DA11DB11DFE
:1004F000E2E0880F991FAA1FBB1FEA95D1F7861B60
:10050000970B885E9340C8F22150304040405040E5
:1005100068517C4F211531054105510571F608954B
:10052000019739F0880F991F880F991F029701973B
:10053000F1F70895789484B5826084BD84B58160B4
:1005400084BD85B5826085BD85B5816085BDEEE6DB
:10055000F0E0808181608083E1E8F0E010828081BA
:1005600082608083808181608083E0E8F0E0808128
:1005700081608083E1EBF0E0808184608083E0EB48
:10058000F0E0808181608083EAE7F0E08081846030
:10059000808380818260808380818160808380818C
:1005A000806880831092C1000895482F50E0CA01EE
:1005B00086569F4FFC0124914A575F4FFA01849160
:1005C0008823C1F0E82FF0E0EE0FFF1FE859FF4F3E
:1005D000A591B491662341F49FB7F8948C9120952E
:1005E00082238C939FBF08959FB7F8948C91822BA0
:1005F0008C939FBF0895482F50E0CA0182559F4FAA
:10060000FC012491CA0186569F4FFC0194914A57E0
:100610005F4FFA013491332309F440C0222351F192
:10062000233071F0243028F42130A1F0223011F56C
:1006300014C02630B1F02730C1F02430D9F404C002
:10064000809180008F7703C0809180008F7D8093A0
:10065000800010C084B58F7702C084B58F7D84BDC3
:1006600009C08091B0008F7703C08091B0008F7D6A
:100670008093B000E32FF0E0EE0FFF1FEE58FF4F26
:10068000A591B4912FB7F894662321F48C9190959D
:10069000892302C08C91892B8C932FBF0895682FDA
:1006A00070E0CB0182559F4FFC012491CB0186560F
:1006B0009F4FFC0144916A577F4FFB01949199230E
:1006C00019F420E030E03CC0222351F1233071F0D6
:1006D000243028F42130A1F0223011F514C0263046
:1006E000B1F02730C1F02430D9F404C080918000EB
:1006F0008F7703C0809180008F7D8093800010C031
:1007000084B58F7702C084B58F7D84BD09C0809188
:10071000B0008F7703C08091B0008F7D8093B000D0
:10072000892F90E0880F991F84589F4FFC01A59155
:10073000B4918C9120E030E0842311F021E030E08E
:10074000C901089508951F920F920FB60F921124B8
:100750002F933F934F938F939F93EF93FF934091EA
:10076000C6002091F5013091F6012F5F3F4F2F73A6
:1007700030708091F7019091F8012817390759F0EE
:10078000E091F501F091F601EB54FE4F4083309378
:10079000F6012093F501FF91EF919F918F914F9179
:1007A0003F912F910F900FBE0F901F901895E091E1
:1007B0004902F0914A02E05CFF4F819191912081C2
:1007C0003181821B930B8F739070892B11F00E94E3
:1007D000A20308951F920F920FB60F9211242F9328
:1007E0003F934F935F936F937F938F939F93AF93B9
:1007F000BF93EF93FF932091390230913A02809199
:100800003B0290913C022817390731F48091C100D6
:100810008F7D8093C10016C0E0913B02F0913C02B5
:10082000E750FE4F408180913B0290913C0201963F
:1008300060E470E00E94A71890933C0280933B0212
:100840004093C600FF91EF91BF91AF919F918F911F
:100850007F916F915F914F913F912F910F900FBEBC
:100860000F901F9018958F92AF92BF92CF92DF9208
:10087000EF92FF920F931F93DF93CF93CDB7DEB725
:10088000FC011382128288EE93E0A0E0B0E0848342
:100890009583A683B7838CE791E0918380837587E6
:1008A000648757874687318B208B138B028BF58AA1
:1008B000E48AD78AC68AB18EA08E828E8E85838F77
:1008C0008F85848F8889858F8989868FCF91DF91E5
:1008D0001F910F91FF90EF90DF90CF90BF90AF905E
:1008E0008F9008958F92AF92BF92CF92DF92EF9246
:1008F000FF920F931F93DF93CF93CDB7DEB7FC0129
:100900001382128288EE93E0A0E0B0E084839583A6
:10091000A683B7838CE791E0918380837587648792
:1009200057874687318B208B138B028BF58AE48A9D
:10093000D78AC68AB18EA08E828E8E85838F8F8550
:10094000848F8889858F8989868FCF91DF911F91C8
:100950000F91FF90EF90DF90CF90BF90AF908F906E
:100960000895AF92BF92DF92EF92FF920F931F9381
:10097000CF93DF93EC017A018B01DD24403081EECF
:10098000580780E0680780E0780711F0DD24D394F1
:1009900091E0A92EB12CEC89FD89DD2069F0C5011B
:1009A0000E8C02C0880F991F0A94E2F7808360E0E2
:1009B00079E08DE390E005C0108260E874E88EE194
:1009C00090E0A80197010E94BA18215030404040A1
:1009D0005040569547953795279580E12030380748
:1009E00020F0DD2011F0DD24D6CFE889F9893083AD
:1009F000EA89FB892083EE89FF89408121E030E08C
:100A0000C9010A8C02C0880F991F0A94E2F7482B8B
:100A10004083EE89FF894081C9010B8C02C0880F99
:100A2000991F0A94E2F7482B4083EE89FF894081A1
:100A3000C9010C8C02C0880F991F0A94E2F7482B59
:100A40004083EE89FF8980810D8C02C0220F331F05
:100A50000A94E2F7209528232083DF91CF911F91FC
:100A60000F91FF90EF90DF90BF90AF900895CF93DC
:100A7000DF93DC011E968D919C911F97EC01C05C69
:100A8000DF4FFC01EE5BFF4F28813981808191812E
:100A900028173907C9F75696ED91FC915797408171
:100AA00021E030E0C9015A960C905A9702C0880F95
:100AB000991F0A94E2F78095842380835696ED91DE
:100AC000FC9157974081C9015B960C905B9702C0DF
:100AD000880F991F0A94E2F78095842380835696A5
:100AE000ED91FC9157974081C9015C960C905C9701
:100AF00002C0880F991F0A94E2F7809584238083AF
:100B00005696ED91FC91579780815D960C905D977C
:100B100002C0220F331F0A94E2F720952823208376
:100B20001C96ED91FC911D97EE5BFF4F80819181AA
:100B300092938293DF91CF910895DC011C96ED9101
:100B4000FC911D97E05CFF4F219131918081918153
:100B5000281B390B2F733070C9010895DC011C96D6
:100B6000ED91FC911D97E05CFF4F20813181E054B5
:100B7000F040DF01AE5BBF4F8D919C91119728171C
:100B8000390719F42FEF3FEF07C08D919C91E80FC3
:100B9000F91F8081282F30E0C9010895DC011C96DF
:100BA000ED91FC911D97E05CFF4F20813181E05475
:100BB000F040DF01AE5BBF4F8D919C9111972817DC
:100BC000390719F42FEF3FEF10C08D919C911197C9
:100BD000E80FF91F20818D919C91119701968F73D9
:100BE000907011969C938E9330E0C9010895FC019A
:100BF00086859785DC01A05CBF4FFC01EE5BFF4F53
:100C00002D913C9111978081918128173907C1F767
:100C10000895CF93DF93EC01462FEE85FF85E05CCE
:100C2000FF4F80819181E054F040019660E470E0D4
:100C30000E94A7189C01DF01AE5BBF4F8D919C9174
:100C4000119728173907D1F3E05CFF4F808191811C
:100C5000E054F040E80FF91F4083EE85FF85E05C2B
:100C6000FF4F31832083EE89FF89208181E090E06E
:100C70000D8C02C0880F991F0A94E2F7282B20835D
:100C800081E090E0DF91CF910895109240021092A0
:100C90003F0288EE93E0A0E0B0E0809341029093A1
:100CA0004202A0934302B09344028CE791E09093F8
:100CB0003E0280933D0285EB91E090934A0280933F
:100CC000490289EF91E090934C0280934B0285ECAE
:100CD00090E090934E0280934D0284EC90E09093CC
:100CE000500280934F0280EC90E0909352028093E8
:100CF000510281EC90E0909354028093530286EC71
:100D000090E0909356028093550284E080935702BE
:100D100083E08093580287E08093590285E08093B6
:100D20005A0281E080935B020895CF92DF92EF92A6
:100D3000FF920F931F93CF93DF937C016B018A0186
:100D4000C0E0D0E00FC0D6016D916D01D701ED91EB
:100D5000FC910190F081E02DC7010995C80FD91FC2
:100D6000015010400115110571F7CE01DF91CF91AF
:100D70001F910F91FF90EF90DF90CF900895EF9229
:100D8000FF920F931F93CF93DF937C018B01C0E001
:100D9000D0E0F8010F5F1F4F6491662359F0D7012F
:100DA000ED91FC910190F081E02DC7010995C80FEC
:100DB000D91FEFCFCE01DF91CF911F910F91FF90FF
:100DC000EF900895DC01ED91FC910190F081E02D10
:100DD000099508959C01DB01ED91FC910190F08152
:100DE000E02DCB01B90109950895EF92FF920F9381
:100DF0001F938C01DC01ED91FC910190F081E02DBD
:100E00006DE009957C01D801ED91FC910190F08194
:100E1000E02DC8016AE009959C012E0D3F1DC90116
:100E20001F910F91FF90EF900895EF92FF920F9313
:100E30001F937C010E94BF068C01C7010E94F5062A
:100E40009C01200F311FC9011F910F91FF90EF905E
:100E50000895EF92FF920F931F937C01DC01ED91B7
:100E6000FC910190F081E02D09958C01C7010E9451
:100E7000F506080F191FC8011F910F91FF90EF9001
:100E80000895EF92FF920F931F937C01DB01ED9188
:100E9000FC910190F081E02DCB01B70109958C0107
:100EA000C7010E94F506080F191FC8011F910F9175
:100EB000FF90EF900895CF93DF93DB010D9000201A
:100EC000E9F71197A61BB70BEC01E881F9810280C5
:100ED000F381E02DAD010995DF91CF9108954F92F7
:100EE0005F927F928F929F92AF92BF92CF92DF924A
:100EF000EF92FF920F931F93DF93CF93CDB7DEB79F
:100F0000A1970FB6F894DEBF0FBECDBF2C01742E93
:100F1000CB01223008F42AE019A231E2C32ED12CF1
:100F2000CC0EDD1E822E9924AA24BB24672D752F9A
:100F3000A50194010E94BA1879018A01C801B7017C
:100F4000A50194010E948818472D461B0894C108EA
:100F5000D1084A3014F4405D01C0495CF601408379
:100F6000E114F1040105110521F07E2C5F2DC8016B
:100F7000DDCFC201B6010E945B07A1960FB6F894BF
:100F8000DEBF0FBECDBFCF91DF911F910F91FF90BC
:100F9000EF90DF90CF90BF90AF909F908F907F9019
:100FA0005F904F900895DC012115310541F4ED91DA
:100FB000FC910190F081E02D642F099508950E9425
:100FC0006F070895EF92FF920F931F937C010E9489
:100FD000D3078C01C7010E94F5069C01200F311F29
:100FE000C9011F910F91FF90EF900895EF92FF922A
:100FF0000F931F939A017B0100E010E0B801A70155
:101000000E94D3071F910F91FF90EF900895CF9208
:10101000DF92EF92FF920F931F936C017B019A0175
:1010200000E010E0B801A7010E94D3078C01C601BF
:101030000E94F506080F191FC8011F910F91FF901C
:10104000EF90DF90CF900895EF92FF920F931F9350
:101050009A01E62EFF2400E010E0B801A7010E94EB
:10106000D3071F910F91FF90EF900895CF92DF92D9
:10107000EF92FF920F931F936C01E62E9A01FF24CB
:1010800000E010E0B801A7010E94D3078C01C6015F
:101090000E94F506080F191FC8011F910F91FF90BC
:1010A000EF90DF90CF900895CF92DF92EF92FF9272
:1010B0000F931F93CF93DF93EC016A017B012115FE
:1010C000310541F4E881F9810190F081E02D642F30
:1010D00009951FC02A303105D1F477FF17C0E88188
:1010E000F9810190F081E02D6DE209958C01442792
:1010F0005527BA014C195D096E097F09CE012AE016
:101100000E946F079801280F391F04C02AE00E942F
:101110006F079C01C901DF91CF911F910F91FF9043
:10112000EF90DF90CF900895EF92FF920F931F936F
:101130007C010E9454088C01C7010E94F5069C01A5
:10114000200F311FC9011F910F91FF90EF9008955B
:10115000EF92FF920F931F937B019A010027F7FCF8
:101160000095102FB801A7010E9454081F910F91FC
:10117000FF90EF900895CF92DF92EF92FF920F933E
:101180001F936C017B019A010027F7FC0095102F3B
:10119000B801A7010E9454088C01C6010E94F506FF
:1011A000080F191FC8011F910F91FF90EF90DF905A
:1011B000CF9008950E945B0708957F928F929F922F
:1011C000AF92BF92CF92DF92EF92FF920F931F9355
:1011D000CF93DF934C017A018B01722ECB01BA01C0
:1011E00020E030E040E050E00E94D61687FD03C0CA
:1011F000C0E0D0E00EC0D401ED91FC910190F081EF
:10120000E02DC4016DE20995EC0117FB109517F96B
:10121000109520E030E040E05FE3AA240BC0CA0153
:10122000B90120E030E040E251E40E94DA169B016F
:10123000AC01A394A71498F3C801B7010E947216D9
:101240005B016C010E9447177B018C01C401B8014E
:10125000A7012AE030E00E94D307C80FD91F7720EA
:1012600039F0C40168E971E00E945B07C80FD91F1B
:10127000C801B7010E9473179B01AC01C601B501FB
:101280000E94711624C020E030E040E251E40E9448
:1012900025187B018C010E9442175B016C01CC2454
:1012A000B7FCC094DC2CC401B601A5012AE030E0F3
:1012B0000E945408C80FD91FC601B5010E947517B6
:1012C0009B01AC01C801B7010E9471167A94772086
:1012D000D1F6CE01DF91CF911F910F91FF90EF904A
:1012E000DF90CF90BF90AF909F908F907F900895A8
:1012F0000E94DD080895EF92FF920F931F937C01E7
:101300000E94DD088C01C7010E94F506080F191F15
:10131000C8011F910F91FF90EF900895EF92FF92F7
:101320000F931F937C010E945B078C01C7010E94F1
:10133000F506080F191FC8011F910F91FF90EF903C
:101340000895AF92BF92CF92DF92EF92FF920F93E8
:101350001F93CF93DF935C016B01EE24FF24C0E069
:10136000D0E010C0D501ED91FC9100811181C60142
:10137000BE010E941B0A682FC501F8010995E80EFD
:10138000F91E2196F60184819581C817D90750F37B
:10139000C701DF91CF911F910F91FF90EF90DF90E8
:1013A000CF90BF90AF900895EF92FF920F931F934D
:1013B0007C010E94A1098C01C7010E94F5069C01D5
:1013C000200F311FC9011F910F91FF90EF900895D9
:1013D000FC01848195816817790748F40190F081B8
:1013E000E02D309721F0E60FF71F8081089580E00F
:1013F0000895FC01848195816817790730F4019084
:10140000F081E02DE60FF71F40830895FC019B015A
:10141000848195816817790728F46081718161154D
:10142000710529F410925C026CE572E002C0620F53
:10143000731FCB010895FC0184819581681779079A
:1014400048F40190F081E02D309721F0E60FF71F6E
:101450008081089580E00895FC010190F081E02DE5
:10146000309729F40895861709F4408331968081D6
:101470008823C9F70895FC0180819181009729F4A0
:1014800020E030E040E050E004C00E941D159B01C8
:10149000AC01B901CA010895CF92DF92EF92FF9299
:1014A0000F931F93CF93DF936C01DC01ED90FC90C1
:1014B0001197E114F10409F441C01496CD91DC9127
:1014C00015972097D9F1870102C00F5F1F4FF801D0
:1014D0008081992787FD90950E94F618892BA9F79E
:1014E0002197CE0DDF1D01C021978881992787FDA7
:1014F00090950E94F618892B19F0C017D107A0F714
:10150000FE013196E01BF10BD6011596FC93EE938C
:1015100014972D913C912017310728F4C901B80187
:10152000AF010E944415D601ED91FC9111971496DC
:101530008D919C911597E80FF91F1082DF91CF9143
:101540001F910F91FF90EF90DF90CF900895CF9370
:10155000DF93FC01C081D181209739F409C099271C
:1015600087FD90950E940619899388818823B9F791
:10157000DF91CF910895CF93DF93FC01C081D1819A
:10158000209739F409C0992787FD90950E94FE188D
:10159000899388818823B9F7DF91CF910895EF92DD
:1015A000FF920F931F93CF93DF93FC01DB0186170C
:1015B000970739F12481358114968D919C91159767
:1015C0002817390701F5232BE1F0E080F180CD9158
:1015D000DC9113C0992787FD90950E94FE188C011D
:1015E0008881992787FD90950E94FE180817190792
:1015F00051F40894E11CF11C2196F70180818823A5
:1016000049F781E001C080E0DF91CF911F910F91F8
:10161000FF90EF900895AF92BF92CF92DF92EF923A
:10162000FF920F931F93CF93DF93FC015B017A012D
:10163000DB0114962D913C9115972115310559F137
:1016400084819581009739F18217930720F148171B
:10165000590720F07C010894E108F108008111810C
:10166000C801CFEFDFEF6801CE0CDF1C10C0F50121
:10167000608171810E94A2159C01009771F0801B0E
:10168000910BE816F90608F0EC01C9010196C8169D
:10169000D90668F702C0CFEFDFEFCE01DF91CF911F
:1016A0001F910F91FF90EF90DF90CF90BF90AF9080
:1016B0000895FC01DB014481558114968D919C9124
:1016C0001597481B590BCF010E940B0B0895CF9320
:1016D000DF93FC01DB01848195814817590760F491
:1016E000C081D1816D917C91CE01840F951F0E94A4
:1016F000A2159C01009719F42FEF3FEF02C02C1B9D
:101700003D0BC901DF91CF91089540E050E00E9468
:10171000670B0895DF92EF92FF920F931F93CF9381
:10172000DF93EC018C819D8148175907C8F47A0139
:101730000894E11CF11CE881F981EE0DFF1DD080B9
:10174000108208811981772767FD7095C8010E9472
:1017500097159C010E0D1F1DF801D082009719F4FA
:10176000EFEFFFEF05C088819981F901E81BF90BC4
:10177000CF01DF91CF911F910F91FF90EF90DF90FC
:101780000895FC0144815581415050400E948A0BCC
:101790000895CF93DF93FC01848195814817590701
:1017A00068F4C081D181772767FD7095CE01840FE1
:1017B000951F0E945F159C01009719F42FEF3FEFD2
:1017C00002C02C1B3D0BC901DF91CF91089540E071
:1017D00050E00E94C90B08950F931F93CF93DF939E
:1017E000FC018B0141155105F9F061157105E1F01E
:1017F000848195812817390718F0FB01108214C0E5
:1018000041505040EC01C21BD30B4C175D0708F44C
:10181000EA0160817181620F731FC801AE010E94ED
:101820008815C00FD11F1882DF91CF911F910F91A2
:101830000895FC01DB012481358114964D915C9162
:10184000159724173507A8F080819181009789F0BA
:101850006D917C916115710561F0241B350B820F30
:10186000931F0E946A159C0180E0232B19F481E0EC
:10187000089580E00895DC01FB0114968D919C9100
:101880001597892B31F461157105A9F090E08081DD
:1018900008C00D90BC91A02D6115710529F490E050
:1018A0008C91882349F407C0CD010E946A159C01E0
:1018B00090E0232B09F491E0892F0895CF93DF93D3
:1018C0009C01FB01EC01A881B981109729F060818E
:1018D000718161157105D1F4C081D181209759F0D2
:1018E00084819581892B39F0888190E022273327E4
:1018F000281B390B12C0109771F0F9018481958172
:10190000892B49F08C91282F30E007C0CD010E942F
:101910006A159C0102C020E030E0C901DF91CF913F
:1019200008950E945E0C892F8095881F8827881F44
:1019300008950E945E0C20E0181619060CF021E0B4
:10194000822F08950E945E0C20E0181619060CF4F0
:1019500021E0822F08950E945E0C892F881F88271E
:10196000881F0895FC01DB012481358114968D9137
:101970009C9115972817390711F020E007C0CF0177
:101980000E945E0C20E0892B09F421E0822F08954B
:10199000FC01DB0114962D913C9115978481958172
:1019A000821B930B84179507A0F08081918100978B
:1019B00081F06D917C916115710559F0840F951F2F
:1019C000A9010E947A159C0180E0232B19F481E083
:1019D000089580E00895FC01DB012481358114968F
:1019E0008D919C9115972817390710F480E0089580
:1019F000CF0140E050E00E94C80C08950F931F9360
:101A0000CF93DF93EC018B016F5F7F4F88819981CA
:101A10000E944814009711F480E005C099838883E0
:101A20001B830A8381E0DF91CF911F910F9108956D
:101A30002F923F924F925F926F927F928F929F92DE
:101A4000AF92BF92CF92DF92EF92FF920F931F93CC
:101A5000CF93DF935C012B014A01DC0114960D91B9
:101A60001C9115970115110509F4D4C0FB01C48020
:101A7000D580C114D10409F4CDC0DA0114966D905B
:101A80007C9015976C187D08FC01E080F180611452
:101A9000710491F01BC0D4016C9111967C91119747
:101AA00014964D915C9115978C2F0E944415F4016A
:101AB000E480F580EC0EFD1ED2016D917C91C70192
:101AC0000E94A215EC01009731F7A4C077FE02C076
:101AD00067012EC0FB0120803180E8013CC08E01EF
:101AE0000E191F09C601B701A8010E9444150C0D6B
:101AF0001D1DD4016C9111967C91119714964D91F6
:101B00005C911597C8010E944415F401C480D580EA
:101B1000C00ED11ED2011496ED90FC901597EC0EDC
:101B2000FD1EF50184819581860D971D9583848323
:101B3000D2016D917C91C7010E94A215EC01009722
:101B400071F6C601B7010E94731564C07B01EC0CED
:101B5000FD1CC60DD71DC701B1010E94A215BC0115
:101B60000097A1F7C017D10709F454C0F50182818D
:101B700093818C179D0708F044C0C501BE010E94E7
:101B8000FE0C8823F1F546C0C501B201A9010E94EF
:101B90000B0BEC0197FD3EC0D5016D917C91119727
:101BA000F201848195818C0F9D1F680F791F149617
:101BB0004D915C911597481B590BCB01860D971DD4
:101BC0000E944D15D50114968D919C911597860D07
:101BD000971D15969C938E931497ED91FC911197F8
:101BE000E80FF91F10822D913C912C0F3D1FF4013D
:101BF0006081718144815581C9010E9444159E0113
:101C000005C0D50114962D913C9115972150304077
:101C100037FFBACFDF91CF911F910F91FF90EF90D7
:101C2000DF90CF90BF90AF909F908F907F906F90FC
:101C30005F904F903F902F900895CF93DF93EC01EA
:101C400088819981892B29F08A819B818617970742
:101C500060F4CE010E94FE0C882341F08C819D81AE
:101C6000892B19F4E881F981108281E0DF91CF910D
:101C70000895EF92FF920F931F93CF93DF93EC01A0
:101C80007B016C817D81E114F104C1F041155105A6
:101C900099F08A01060F171FB8010E941D0E8823B4
:101CA00069F0888199812C813D81820F931FB70152
:101CB0000E9473151D830C8381E001C080E0DF91D9
:101CC000CF911F910F91FF90EF900895EF92FF92A7
:101CD0000F931F93DF93CF93CDB7DEB72B970FB63C
:101CE000F894DEBF0FBECDBF7C01CB01BA018E01DF
:101CF0000F5F1F4FA8012AE030E00E942616F8016E
:101D000001900020E9F73197E01BF10BC701B80102
:101D1000AF010E94390E2B960FB6F894DEBF0FBEAE
:101D2000CDBFCF91DF911F910F91FF90EF9008955C
:101D3000EF92FF920F931F93DF93CF93CDB7DEB750
:101D40002C970FB6F894DEBF0FBECDBF7C01CB0140
:101D5000BA018E010F5F1F4FA8012AE030E00E94F8
:101D6000DD15F80101900020E9F73197E01BF10B38
:101D7000C701B801AF010E94390E2C960FB6F89436
:101D8000DEBF0FBECDBFCF91DF911F910F91FF90AE
:101D9000EF900895EF92FF920F931F93DF93CF93ED
:101DA00000D000D000D0CDB7DEB77C01CB018E01D2
:101DB0000F5F1F4FB8014AE050E00E944B16F80138
:101DC00001900020E9F73197E01BF10BC701B80142
:101DD000AF010E94390E26960FB6F894DEBF0FBEF3
:101DE000CDBFCF91DF911F910F91FF90EF9008959C
:101DF000EF92FF920F931F93DF93CF93CDB7DEB790
:101E000027970FB6F894DEBF0FBECDBF7C01CB0184
:101E10008E010F5F1F4FB8014AE050E00E94BC15D1
:101E2000F80101900020E9F73197E01BF10BC701A1
:101E3000B801AF010E94390E27960FB6F894DEBFA5
:101E40000FBECDBFCF91DF911F910F91FF90EF900B
:101E50000895EF92FF920F931F93DF93CF9300D0DB
:101E600000D0CDB7DEB77C01862F90E08E010F5FEA
:101E70001F4FB8014AE050E00E94BC15F8010190E4
:101E80000020E9F73197E01BF10BC701B801AF0162
:101E90000E94390E0F900F900F900F90CF91DF910D
:101EA0001F910F91FF90EF900895DF93CF9300D093
:101EB000CDB7DEB769831A82BE016F5F7F4F41E005
:101EC00050E00E94390E0F900F90CF91DF9108954E
:101ED0006115710511F480E00895DB010D9000207B
:101EE000E9F71197A61BB70BAD010E94390E0895B3
:101EF000FB0160817181448155810E94390E0895F2
:101F0000CF93DF93EC0188819981009711F00E94B3
:101F1000F013198218821D821C821B821A82DF91A3
:101F2000CF9108950F931F93182F092F0E94660ECB
:101F3000882321F4812F902F0E94800F812F902FD2
:101F40001F910F9108950F931F93182F092F0E942F
:101F5000980E882321F4812F902F0E94800F812FCB
:101F6000902F1F910F9108950F931F93182F092FF2
:101F70000E94CA0E882321F4812F902F0E94800F87
:101F8000812F902F1F910F9108950F931F93182F5A
:101F9000092F0E94F80E882321F4812F902F0E9490
:101FA000800F812F902F1F910F9108950F931F93F2
:101FB000182F092F0E94290F882321F4812F902F99
:101FC0000E94800F812F902F1F910F9108950F93E2
:101FD0001F93182F092F0E94550F882321F4812F5A
:101FE000902F0E94800F812F902F1F910F910895A5
:101FF0000F931F93182F092F6115710561F0DB01F5
:102000000D900020E9F71197A61BB70BAD010E94B8
:10201000390E882321F4812F902F0E94800F812F69
:10202000902F1F910F9108950F931F93182F092F31
:10203000FB0160817181448155810E94390E8823A2
:1020400021F4812F902F0E94800F812F902F1F91BC
:102050000F910895EF92FF920F931F93CF93DF9309
:10206000EC017B018A01BA010E941D0E882321F434
:10207000CE010E94800F07C01D830C838881998147
:10208000B7010E947315CE01DF91CF911F910F917F
:10209000FF90EF900895CF93DF93EC01198218829F
:1020A0001B821A821D821C821E826115710551F0ED
:1020B000DB010D900020E9F71197A61BB70BAD01CE
:1020C0000E942A10DF91CF910895CF93DF93EC0106
:1020D000198218821B821A821D821C821E8261153F
:1020E000710551F0DB010D900020E9F71197A61B57
:1020F000B70BAD010E942A10DF91CF9108950F9385
:102100001F93182F092F6115710559F0DB010D90F0
:102110000020E9F71197A61BB70BAD010E942A100A
:1021200002C00E94800F812F902F1F910F91089560
:10213000EF92FF920F931F93DF93CF93CDB7DEB74C
:10214000A1970FB6F894DEBF0FBECDBF8C01FC0186
:102150001182108213821282158214821682CB01A0
:10216000BA017E010894E11CF11CA70130E00E9435
:102170002616C801B7010E947F10A1960FB6F894E9
:10218000DEBF0FBECDBFCF91DF911F910F91FF90AA
:10219000EF900895EF92FF920F931F93DF93CF93E9
:1021A000CDB7DEB7A1970FB6F894DEBF0FBECDBF97
:1021B0008C01FC011182108213821282158214821A
:1021C0001682CB01BA017E010894E11CF11CA70123
:1021D00030E00E942616C801B7010E947F10A19628
:1021E0000FB6F894DEBF0FBECDBFCF91DF911F9128
:1021F0000F91FF90EF900895EF92FF920F931F932E
:10220000DF93CF93CDB7DEB7A2970FB6F894DEBFBA
:102210000FBECDBF8C01FC0111821082138212828D
:10222000158214821682CB01BA017E010894E11C4A
:10223000F11CA70130E00E94DD15C801B7010E9422
:102240007F10A2960FB6F894DEBF0FBECDBFCF9120
:10225000DF911F910F91FF90EF900895EF92FF9201
:102260000F931F93DF93CF93CDB7DEB7A2970FB62F
:10227000F894DEBF0FBECDBF8C01FC01118210822D
:1022800013821282158214821682CB01BA017E015A
:102290000894E11CF11CA70130E00E94DD15C80183
:1022A000B7010E947F10A2960FB6F894DEBF0FBE52
:1022B000CDBFCF91DF911F910F91FF90EF900895C7
:1022C000EF92FF920F931F93DF93CF93CDB7DEB7BB
:1022D00061970FB6F894DEBF0FBECDBF8C01CB0166
:1022E000F8011182108213821282158214821682E2
:1022F0007E010894E11CF11CB70150E00E944B16CE
:10230000C801B7010E947F1061960FB6F894DEBF36
:102310000FBECDBFCF91DF911F910F91FF90EF9036
:102320000895EF92FF920F931F93DF93CF93CDB752
:10233000DEB761970FB6F894DEBF0FBECDBF8C013C
:10234000CB01F8011182108213821282158214824D
:1023500016827E010894E11CF11CB70150E00E9436
:102360004B16C801B7010E947F1061960FB6F89412
:10237000DEBF0FBECDBFCF91DF911F910F91FF90B8
:10238000EF900895EF92FF920F931F93DF93CF93F7
:10239000CDB7DEB762970FB6F894DEBF0FBECDBFE4
:1023A0008C01CB01F80111821082138212821582F6
:1023B000148216827E010894E11CF11CB70150E0E2
:1023C0000E94BC15C801B7010E947F1062960FB62B
:1023D000F894DEBF0FBECDBFCF91DF911F910F915B
:1023E000FF90EF900895EF92FF920F931F93DF936A
:1023F000CF93CDB7DEB762970FB6F894DEBF0FBEAE
:10240000CDBF8C01CB01F8011182108213821282A0
:102410001582148216827E010894E11CF11CB7011A
:1024200050E00E94BC15C801B7010E947F1062965F
:102430000FB6F894DEBF0FBECDBFCF91DF911F91D5
:102440000F91FF90EF900895EF92FF920F931F93DB
:10245000DF93CF93CDB7DEB729970FB6F894DEBFE1
:102460000FBECDBF8C01862FF8011182108213821E
:10247000128215821482168290E07E010894E11C7B
:10248000F11CB70150E00E944B16C801B7010E9431
:102490007F1029960FB6F894DEBF0FBECDBFCF9147
:1024A000DF911F910F91FF90EF900895EF92FF92AF
:1024B0000F931F93DF93CF93CDB7DEB729970FB656
:1024C000F894DEBF0FBECDBF8C01862FF8011182BC
:1024D00010821382128215821482168290E07E018D
:1024E0000894E11CF11CB70150E00E944B16C80192
:1024F000B7010E947F1029960FB6F894DEBF0FBE79
:10250000CDBFCF91DF911F910F91FF90EF90089574
:10251000DF93CF9300D0CDB7DEB7FC0111821082DC
:102520001382128215821482168269831A82BE0176
:102530006F5F7F4F0E947F100F900F90CF91DF91C0
:102540000895DF93CF9300D0CDB7DEB7FC011182A1
:1025500010821382128215821482168269831A8273
:10256000BE016F5F7F4F0E947F100F900F90CF9141
:10257000DF910895BF92CF92DF92EF92FF920F9377
:102580001F93CF93DF93082FB92E6B017A01E901D6
:102590002417350710F4EA017901802F9B2D62EA98
:1025A00071E00E944B10D60114968D919C91159765
:1025B0008E159F05D0F08C179D0708F4EC01D6010D
:1025C000ED91FC911197EC0FFD1F108110826D9120
:1025D0007C916E0D7F1D802F9B2D0E947F10D60158
:1025E000ED91FC91EC0FFD1F1083802F9B2DDF914F
:1025F000CF911F910F91FF90EF90DF90CF90BF9000
:1026000008950F931F938C01FB01248135810E9453
:10261000BA12C8011F910F910895CF93DF93EC0177
:10262000FB018617970761F0608171816115710563
:1026300029F0448155810E942A1002C00E94800F17
:10264000CE01DF91CF910895FC0111821082138297
:1026500012821582148216820E940D130895FC01C5
:1026600011821082138212821582148216820E94B5
:102670000D130895FC01808191810E94F01308954B
:10268000FC01808191810E94F0130895CF93DF9324
:10269000BC018230910510F462E070E0A0915F020D
:1026A000B0916002ED01E0E0F0E040E050E021C0D8
:1026B000888199818617970769F48A819B81309771
:1026C00019F09383828304C09093600280935F0229
:1026D000FE0134C06817790738F44115510519F027
:1026E0008417950708F4AC01FE018A819B819C0147
:1026F000E9012097E9F641155105A9F1CA01861BA8
:10270000970B049708F4BA01E0E0F0E02AC08D913D
:102710009C91119784179507F9F46417750781F454
:1027200012968D919C911397309719F09383828321
:1027300004C09093600280935F02FD0132964CC00A
:10274000CA01861B970BFD01E80FF91F6193719376
:1027500002978D939C9340C0FD01828193819C01DF
:10276000D9011097A1F680915D0290915E02892BAC
:1027700041F48091A5019091A60190935E0280930F
:102780005D024091A7015091A8014115510541F406
:102790004DB75EB78091A3019091A401481B590BDE
:1027A00020915D0230915E02CA01821B930B861755
:1027B000970780F0AB014E5F5F4F8417950750F08D
:1027C000420F531F50935E0240935D02F9016193E3
:1027D000719302C0E0E0F0E0CF01DF91CF91089566
:1027E000CF93DF93009709F450C0EC0122971B822E
:1027F0001A82A0915F02B0916002109709F140E047
:1028000050E0AC17BD0708F1BB83AA83FE012191FC
:102810003191E20FF31FAE17BF0779F48D919C91B0
:102820001197280F391F2E5F3F4F39832883129647
:102830008D919C9113979B838A834115510571F467
:10284000D0936002C0935F0220C012968D919C913C
:102850001397AD01009711F0DC01D3CFFA01D383B8
:10286000C28321913191E20FF31FCE17DF0769F484
:1028700088819981280F391F2E5F3F4FFA013183DC
:1028800020838A819B8193838283DF91CF910895F6
:10289000A0E0B0E0EEE4F4E10C9413196C010097B1
:1028A00029F4CB010E9446136C01C1C08EEF882E23
:1028B0008FEF982E8C0C9D1C8601060F171F081594
:1028C000190508F4B2C0F401A081B181A617B707B9
:1028D000B8F0A530B10508F4AAC0CD010497861759
:1028E000970708F4A4C01297A61BB70BF801A19391
:1028F000B193D4016D937C93CF010E94F01397C0E4
:102900007B01EA1AFB0AEEEFFFEFEE0EFF1E360127
:102910006A0E7B1EC0915F02D09160024424552450
:10292000AA24BB244AC0C615D705E1F548815981C0
:102930004E155F05B8F1CA0104978E159F05B0F4D6
:102940001296A40FB51FF401B183A0832A813B81A5
:102950004114510431F0D20113963C932E931297F7
:1029600066C03093600220935F0261C08A819B81C0
:10297000F80193838283425050404E195F0951837E
:1029800040834114510431F0D20113961C930E93ED
:10299000129704C01093600200935F02F4017183E8
:1029A000608345C088819981A816B90608F45C0146
:1029B0002E018A819B819C01E901209709F0B3CF08
:1029C00080915D0290915E0286159705E9F4A61646
:1029D000B706D0F42091A7013091A8012115310547
:1029E00041F42DB73EB78091A3019091A401281B1B
:1029F000390B02171307C8F410935E0200935D02AF
:102A0000D4016D937C9313C0CB010E944613EC015B
:102A1000009759F0F40140815181B6010E9444159C
:102A2000C6010E94F0136E0102C0CC24DD24C60151
:102A3000CDB7DEB7E0E10C942F191F93FC01992765
:102A40008827BC01E89411911032E9F3193010F095
:102A50001E30C8F31B3251F01D3249F4689406C091
:102A60000E941116610F711D811D911D119110534E
:102A70001A30B0F33EF490958095709561957F4F34
:102A80008F4F9F4F1F910895FB01DC0102C0019001
:102A90000D9241505040D8F708956817790768F4AF
:102AA000FB01DC01E40FF51FA40FB51F02C002906B
:102AB0000E9241505040D8F708950C944415FC01F3
:102AC0008191861721F08823D9F7992708953197A6
:102AD000CF010895FB01DC018D9101908019011057
:102AE000D9F3990B0895FB01DC0101900D920020B0
:102AF000E1F70895FB01DC014150504030F08D9129
:102B00000190801919F40020B9F7881B990B0895DA
:102B1000FB01DC014150504048F001900D92002033
:102B2000C9F701C01D9241505040E0F70895FC01E3
:102B300081E090E00190061609F4CF010020D1F762
:102B400001970895FB0151915523A9F0BF01DC01C4
:102B50004D9145174111E1F759F4CD010190002045
:102B600049F04D9140154111C9F3FB014111EFCFDF
:102B700081E090E001970895FB019F01E8944230C5
:102B8000C4F04532B4F44A3029F497FB1EF4909512
:102B900081959F4F642F77270E94DC18805D8A33D0
:102BA0000CF0895D8193CB010097A1F716F45DE2EB
:102BB00051931082C9010C946116FA01CF93FF93CF
:102BC000EF93223044F1253234F5C22FE894CA3015
:102BD00049F497FB3EF490958095709561957F4FF1
:102BE0008F4F9F4F2C2F332744275527FF93EF9369
:102BF0000E94BA18EF91FF91605D6A330CF0695D35
:102C00006193B901CA01605070408040904051F713
:102C100016F4CDE2C19310828F919F91CF910C94C5
:102C20006116592F482F372F262F660F771F881FC1
:102C3000991F660F771F881F991F620F731F841FCC
:102C4000951F660F771F881F991F0895FA01CF936C
:102C5000FF93EF932230CCF02532BCF4C22F2C2FFF
:102C6000332744275527FF93EF930E94BA18EF911B
:102C7000FF91605D6A330CF0695D6193B901CA012F
:102C8000605070408040904051F710828F919F912A
:102C9000CF910C946116FB019F01423074F04532D4
:102CA00064F4642F77270E94DC18805D8A330CF06F
:102CB000895D8193CB010097A1F71082C9010C9423
:102CC0006116DC01FC01672F71917723E1F73297E0
:102CD00004C07C916D9370836291AE17BF07C8F3F7
:102CE00008955058BB27AA270ED075C166D130F081
:102CF0006BD120F031F49F3F11F41EF45BC10EF450
:102D0000E095E7FB51C1E92F77D180F3BA1762074D
:102D100073078407950718F071F49EF58FC10EF4C0
:102D2000E0950B2EBA2FA02D0B01B90190010C01DB
:102D3000CA01A0011124FF27591B99F0593F50F4F3
:102D4000503E68F11A16F040A22F232F342F44274B
:102D5000585FF3CF469537952795A795F040539543
:102D6000C9F77EF41F16BA0B620B730B840BBAF013
:102D70009150A1F0FF0FBB1F661F771F881FC2F77E
:102D80000EC0BA0F621F731F841F48F48795779592
:102D90006795B795F7959E3F08F0B3CF9395880F49
:102DA00008F09927EE0F979587950895D9D008F4E4
:102DB00081E008950CD00FC107D140F0FED030F073
:102DC00021F45F3F19F0F0C0511139C1F3C014D1A3
:102DD00098F39923C9F35523B1F3951B550BBB27E2
:102DE000AA2762177307840738F09F5F5F4F220F8F
:102DF000331F441FAA1FA9F333D00E2E3AF0E0E888
:102E000030D091505040E695001CCAF729D0FE2FD3
:102E100027D0660F771F881FBB1F26173707480765
:102E2000AB07B0E809F0BB0B802DBF01FF2793581B
:102E30005F4F2AF09E3F510568F0B6C000C15F3F6A
:102E4000ECF3983EDCF3869577956795B795F79503
:102E50009F5FC9F7880F911D9695879597F90895FB
:102E6000E1E0660F771F881FBB1F62177307840797
:102E7000BA0720F0621B730B840BBA0BEE1F88F7A6
:102E8000E095089504D06894B111D9C00895BCD0DC
:102E900088F09F5790F0B92F9927B751A0F0D1F043
:102EA000660F771F881F991F1AF0BA95C9F712C0CD
:102EB000B13081F0C3D0B1E00895C0C0672F782F42
:102EC0008827B85F39F0B93FCCF386957795679539
:102ED000B395D9F73EF490958095709561957F4FA5
:102EE0008F4F9F4F0895E89409C097FB3EF490954B
:102EF0008095709561957F4F8F4F9F4F9923A9F0D3
:102F0000F92F96E9BB279395F69587957795679561
:102F1000B795F111F8CFFAF4BB0F11F460FF1BC0A5
:102F20006F5F7F4F8F4F9F4F16C0882311F096E938
:102F300011C0772321F09EE8872F762F05C06623E6
:102F400071F096E8862F70E060E02AF09A95660F9F
:102F5000771F881FDAF7880F9695879597F9089558
:102F6000990F0008550FAA0BE0E8FEEF161617069A
:102F7000E807F907C0F012161306E407F50798F002
:102F8000621B730B840B950B39F40A2661F0232B1B
:102F9000242B252B21F408950A2609F4A140A69597
:102FA0008FEF811D811D089597F99F6780E870E07C
:102FB00060E008959FEF80EC089500240A941616AF
:102FC000170618060906089500240A941216130617
:102FD000140605060895092E0394000C11F48823A5
:102FE00052F0BB0F40F4BF2B11F460FF04C06F5FC1
:102FF0007F4F8F4F9F4F089557FD9058440F551F97
:1030000059F05F3F71F04795880F97FB991F61F06A
:103010009F3F79F087950895121613061406551FE1
:10302000F2CF4695F1DF08C0161617061806991F4D
:10303000F1CF86957105610508940895E894BB2742
:1030400066277727CB0197F908950BD0C4CFB5DF5A
:1030500028F0BADF18F0952309F0A6CFABCF1124E2
:10306000EECFCADFA0F3959FD1F3950F50E0551F27
:10307000629FF001729FBB27F00DB11D639FAA27CD
:10308000F00DB11DAA1F649F6627B00DA11D661F1C
:10309000829F2227B00DA11D621F739FB00DA11D3D
:1030A000621F839FA00D611D221F749F3327A00DF7
:1030B000611D231F849F600D211D822F762F6A2F93
:1030C00011249F5750408AF0E1F088234AF0EE0F18
:1030D000FF1FBB1F661F771F881F91505040A9F725
:1030E0009E3F510570F060CFAACF5F3FECF3983E52
:1030F000DCF3869577956795B795F795E7959F5F8C
:10310000C1F7FE2B880F911D9695879597F9089525
:10311000629FD001739FF001829FE00DF11D649FBB
:10312000E00DF11D929FF00D839FF00D749FF00D47
:10313000659FF00D9927729FB00DE11DF91F639FE8
:10314000B00DE11DF91FBD01CF011124089597FBBA
:10315000092E07260AD077FD04D02ED006D00020F5
:103160001AF4709561957F4F0895F6F790958195C3
:103170009F4F0895A1E21A2EAA1BBB1BFD010DC093
:10318000AA1FBB1FEE1FFF1FA217B307E407F50717
:1031900020F0A21BB30BE40BF50B661F771F881FF3
:1031A000991F1A9469F760957095809590959B0189
:1031B000AC01BD01CF010895AA1BBB1B51E107C0A3
:1031C000AA1FBB1FA617B70710F0A61BB70B881FB7
:1031D000991F5A95A9F780959095BC01CD01089546
:1031E000EE0FFF1F0590F491E02D0994911116C088
:1031F000803219F089508550D0F7089591110895C3
:1032000081548A5108F4805E855A08959111089579
:1032100081568A5108F48052855808959927882745
:1032200008952F923F924F925F926F927F928F926A
:103230009F92AF92BF92CF92DF92EF92FF920F9345
:103240001F93CF93DF93CDB7DEB7CA1BDB0B0FB64F
:10325000F894DEBF0FBECDBF09942A88398848880C
:103260005F846E847D848C849B84AA84B984C884A2
:10327000DF80EE80FD800C811B81AA81B981CE0F99
:10328000D11D0FB6F894DEBF0FBECDBFED0108957E
:04329000F894FFCFE0
:103294000200020002000100010001000000000021
:1032A400000000000000000003000300030003000E
:1032B40003000300020002000200010001000100FB
:1032C40000000000000003000300030001000200EE
:1032D4000300040005000600070008000A000B00B4
:1032E4000C000D000E000F00100010000F000E0067
:1032F4000D000C000B000800090007000600050083
:103304000400030002000100000000000906950605
:103314009D05CE05AE05F705000000008C0095065E
:103324008C008C008C008C002E00000000008C00AF
:0A3334009506002000610200000071
:00000001FF
